{
  "_format": "hh-sol-artifact-1",
  "contractName": "SelfToken",
  "sourceName": "src/contracts/SelfToken.sol",
  "abi": [
    {
      "inputs": [
        {
          "internalType": "uint256",
          "name": "initialSupply",
          "type": "uint256"
        },
        {
          "internalType": "address",
          "name": "initialMinter",
          "type": "address"
        }
      ],
      "stateMutability": "nonpayable",
      "type": "constructor"
    },
    {
      "inputs": [],
      "name": "AccessControlBadConfirmation",
      "type": "error"
    },
    {
      "inputs": [
        {
          "internalType": "address",
          "name": "account",
          "type": "address"
        },
        {
          "internalType": "bytes32",
          "name": "neededRole",
          "type": "bytes32"
        }
      ],
      "name": "AccessControlUnauthorizedAccount",
      "type": "error"
    },
    {
      "inputs": [
        {
          "internalType": "address",
          "name": "spender",
          "type": "address"
        },
        {
          "internalType": "uint256",
          "name": "allowance",
          "type": "uint256"
        },
        {
          "internalType": "uint256",
          "name": "needed",
          "type": "uint256"
        }
      ],
      "name": "ERC20InsufficientAllowance",
      "type": "error"
    },
    {
      "inputs": [
        {
          "internalType": "address",
          "name": "sender",
          "type": "address"
        },
        {
          "internalType": "uint256",
          "name": "balance",
          "type": "uint256"
        },
        {
          "internalType": "uint256",
          "name": "needed",
          "type": "uint256"
        }
      ],
      "name": "ERC20InsufficientBalance",
      "type": "error"
    },
    {
      "inputs": [
        {
          "internalType": "address",
          "name": "approver",
          "type": "address"
        }
      ],
      "name": "ERC20InvalidApprover",
      "type": "error"
    },
    {
      "inputs": [
        {
          "internalType": "address",
          "name": "receiver",
          "type": "address"
        }
      ],
      "name": "ERC20InvalidReceiver",
      "type": "error"
    },
    {
      "inputs": [
        {
          "internalType": "address",
          "name": "sender",
          "type": "address"
        }
      ],
      "name": "ERC20InvalidSender",
      "type": "error"
    },
    {
      "inputs": [
        {
          "internalType": "address",
          "name": "spender",
          "type": "address"
        }
      ],
      "name": "ERC20InvalidSpender",
      "type": "error"
    },
    {
      "anonymous": false,
      "inputs": [
        {
          "indexed": true,
          "internalType": "address",
          "name": "owner",
          "type": "address"
        },
        {
          "indexed": true,
          "internalType": "address",
          "name": "spender",
          "type": "address"
        },
        {
          "indexed": false,
          "internalType": "uint256",
          "name": "value",
          "type": "uint256"
        }
      ],
      "name": "Approval",
      "type": "event"
    },
    {
      "anonymous": false,
      "inputs": [
        {
          "indexed": true,
          "internalType": "bytes32",
          "name": "role",
          "type": "bytes32"
        },
        {
          "indexed": true,
          "internalType": "bytes32",
          "name": "previousAdminRole",
          "type": "bytes32"
        },
        {
          "indexed": true,
          "internalType": "bytes32",
          "name": "newAdminRole",
          "type": "bytes32"
        }
      ],
      "name": "RoleAdminChanged",
      "type": "event"
    },
    {
      "anonymous": false,
      "inputs": [
        {
          "indexed": true,
          "internalType": "bytes32",
          "name": "role",
          "type": "bytes32"
        },
        {
          "indexed": true,
          "internalType": "address",
          "name": "account",
          "type": "address"
        },
        {
          "indexed": true,
          "internalType": "address",
          "name": "sender",
          "type": "address"
        }
      ],
      "name": "RoleGranted",
      "type": "event"
    },
    {
      "anonymous": false,
      "inputs": [
        {
          "indexed": true,
          "internalType": "bytes32",
          "name": "role",
          "type": "bytes32"
        },
        {
          "indexed": true,
          "internalType": "address",
          "name": "account",
          "type": "address"
        },
        {
          "indexed": true,
          "internalType": "address",
          "name": "sender",
          "type": "address"
        }
      ],
      "name": "RoleRevoked",
      "type": "event"
    },
    {
      "anonymous": false,
      "inputs": [
        {
          "indexed": true,
          "internalType": "address",
          "name": "from",
          "type": "address"
        },
        {
          "indexed": true,
          "internalType": "address",
          "name": "to",
          "type": "address"
        },
        {
          "indexed": false,
          "internalType": "uint256",
          "name": "value",
          "type": "uint256"
        }
      ],
      "name": "Transfer",
      "type": "event"
    },
    {
      "inputs": [],
      "name": "DEFAULT_ADMIN_ROLE",
      "outputs": [
        {
          "internalType": "bytes32",
          "name": "",
          "type": "bytes32"
        }
      ],
      "stateMutability": "view",
      "type": "function"
    },
    {
      "inputs": [],
      "name": "MINTER_ROLE",
      "outputs": [
        {
          "internalType": "bytes32",
          "name": "",
          "type": "bytes32"
        }
      ],
      "stateMutability": "view",
      "type": "function"
    },
    {
      "inputs": [
        {
          "internalType": "address",
          "name": "owner",
          "type": "address"
        },
        {
          "internalType": "address",
          "name": "spender",
          "type": "address"
        }
      ],
      "name": "allowance",
      "outputs": [
        {
          "internalType": "uint256",
          "name": "",
          "type": "uint256"
        }
      ],
      "stateMutability": "view",
      "type": "function"
    },
    {
      "inputs": [
        {
          "internalType": "address",
          "name": "spender",
          "type": "address"
        },
        {
          "internalType": "uint256",
          "name": "value",
          "type": "uint256"
        }
      ],
      "name": "approve",
      "outputs": [
        {
          "internalType": "bool",
          "name": "",
          "type": "bool"
        }
      ],
      "stateMutability": "nonpayable",
      "type": "function"
    },
    {
      "inputs": [
        {
          "internalType": "address",
          "name": "account",
          "type": "address"
        }
      ],
      "name": "balanceOf",
      "outputs": [
        {
          "internalType": "uint256",
          "name": "",
          "type": "uint256"
        }
      ],
      "stateMutability": "view",
      "type": "function"
    },
    {
      "inputs": [
        {
          "internalType": "uint256",
          "name": "value",
          "type": "uint256"
        }
      ],
      "name": "burn",
      "outputs": [],
      "stateMutability": "nonpayable",
      "type": "function"
    },
    {
      "inputs": [
        {
          "internalType": "address",
          "name": "account",
          "type": "address"
        },
        {
          "internalType": "uint256",
          "name": "value",
          "type": "uint256"
        }
      ],
      "name": "burnFrom",
      "outputs": [],
      "stateMutability": "nonpayable",
      "type": "function"
    },
    {
      "inputs": [],
      "name": "decimals",
      "outputs": [
        {
          "internalType": "uint8",
          "name": "",
          "type": "uint8"
        }
      ],
      "stateMutability": "view",
      "type": "function"
    },
    {
      "inputs": [
        {
          "internalType": "bytes32",
          "name": "role",
          "type": "bytes32"
        }
      ],
      "name": "getRoleAdmin",
      "outputs": [
        {
          "internalType": "bytes32",
          "name": "",
          "type": "bytes32"
        }
      ],
      "stateMutability": "view",
      "type": "function"
    },
    {
      "inputs": [
        {
          "internalType": "bytes32",
          "name": "role",
          "type": "bytes32"
        },
        {
          "internalType": "address",
          "name": "account",
          "type": "address"
        }
      ],
      "name": "grantRole",
      "outputs": [],
      "stateMutability": "nonpayable",
      "type": "function"
    },
    {
      "inputs": [
        {
          "internalType": "bytes32",
          "name": "role",
          "type": "bytes32"
        },
        {
          "internalType": "address",
          "name": "account",
          "type": "address"
        }
      ],
      "name": "hasRole",
      "outputs": [
        {
          "internalType": "bool",
          "name": "",
          "type": "bool"
        }
      ],
      "stateMutability": "view",
      "type": "function"
    },
    {
      "inputs": [
        {
          "internalType": "address",
          "name": "to",
          "type": "address"
        },
        {
          "internalType": "uint256",
          "name": "amount",
          "type": "uint256"
        }
      ],
      "name": "mint",
      "outputs": [],
      "stateMutability": "nonpayable",
      "type": "function"
    },
    {
      "inputs": [],
      "name": "name",
      "outputs": [
        {
          "internalType": "string",
          "name": "",
          "type": "string"
        }
      ],
      "stateMutability": "view",
      "type": "function"
    },
    {
      "inputs": [
        {
          "internalType": "bytes32",
          "name": "role",
          "type": "bytes32"
        },
        {
          "internalType": "address",
          "name": "callerConfirmation",
          "type": "address"
        }
      ],
      "name": "renounceRole",
      "outputs": [],
      "stateMutability": "nonpayable",
      "type": "function"
    },
    {
      "inputs": [
        {
          "internalType": "bytes32",
          "name": "role",
          "type": "bytes32"
        },
        {
          "internalType": "address",
          "name": "account",
          "type": "address"
        }
      ],
      "name": "revokeRole",
      "outputs": [],
      "stateMutability": "nonpayable",
      "type": "function"
    },
    {
      "inputs": [
        {
          "internalType": "bytes4",
          "name": "interfaceId",
          "type": "bytes4"
        }
      ],
      "name": "supportsInterface",
      "outputs": [
        {
          "internalType": "bool",
          "name": "",
          "type": "bool"
        }
      ],
      "stateMutability": "view",
      "type": "function"
    },
    {
      "inputs": [],
      "name": "symbol",
      "outputs": [
        {
          "internalType": "string",
          "name": "",
          "type": "string"
        }
      ],
      "stateMutability": "view",
      "type": "function"
    },
    {
      "inputs": [],
      "name": "totalSupply",
      "outputs": [
        {
          "internalType": "uint256",
          "name": "",
          "type": "uint256"
        }
      ],
      "stateMutability": "view",
      "type": "function"
    },
    {
      "inputs": [
        {
          "internalType": "address",
          "name": "to",
          "type": "address"
        },
        {
          "internalType": "uint256",
          "name": "value",
          "type": "uint256"
        }
      ],
      "name": "transfer",
      "outputs": [
        {
          "internalType": "bool",
          "name": "",
          "type": "bool"
        }
      ],
      "stateMutability": "nonpayable",
      "type": "function"
    },
    {
      "inputs": [
        {
          "internalType": "address",
          "name": "from",
          "type": "address"
        },
        {
          "internalType": "address",
          "name": "to",
          "type": "address"
        },
        {
          "internalType": "uint256",
          "name": "value",
          "type": "uint256"
        }
      ],
      "name": "transferFrom",
      "outputs": [
        {
          "internalType": "bool",
          "name": "",
          "type": "bool"
        }
      ],
      "stateMutability": "nonpayable",
      "type": "function"
    }
  ],
  "bytecode": "0x60806040523480156200001157600080fd5b50604051620010ff380380620010ff83398101604081905262000034916200036f565b6040518060400160405280600981526020016829b2b6332a37b5b2b760b91b8152506040518060400160405280600481526020016329a2a62360e11b815250816003908162000084919062000453565b50600462000093828262000453565b5050506001600160a01b038116620000fc5760405162461bcd60e51b815260206004820152602160248201527f53656c66546f6b656e3a20696e76616c6964206d696e746572206164647265736044820152607360f81b60648201526084015b60405180910390fd5b620001096000336200014b565b50620001367f9f2df0fed2c77648de5860a4cc508cd0818c85b8b8a1ab4ceeef8d981c8956a6826200014b565b50620001438183620001fe565b505062000541565b60008281526005602090815260408083206001600160a01b038516845290915281205460ff16620001f45760008381526005602090815260408083206001600160a01b03861684529091529020805460ff19166001179055620001ab3390565b6001600160a01b0316826001600160a01b0316847f2f8788117e7eff1d82e926ec794901d17c78024a50270940304540a733656f0d60405160405180910390a4506001620001f8565b5060005b92915050565b6001600160a01b0382166200022a5760405163ec442f0560e01b815260006004820152602401620000f3565b62000238600083836200023c565b5050565b6001600160a01b0383166200026b5780600260008282546200025f91906200051f565b90915550620002df9050565b6001600160a01b03831660009081526020819052604090205481811015620002c05760405163391434e360e21b81526001600160a01b03851660048201526024810182905260448101839052606401620000f3565b6001600160a01b03841660009081526020819052604090209082900390555b6001600160a01b038216620002fd576002805482900390556200031c565b6001600160a01b03821660009081526020819052604090208054820190555b816001600160a01b0316836001600160a01b03167fddf252ad1be2c89b69c2b068fc378daa952ba7f163c4a11628f55a4df523b3ef836040516200036291815260200190565b60405180910390a3505050565b600080604083850312156200038357600080fd5b825160208401519092506001600160a01b0381168114620003a357600080fd5b809150509250929050565b634e487b7160e01b600052604160045260246000fd5b600181811c90821680620003d957607f821691505b602082108103620003fa57634e487b7160e01b600052602260045260246000fd5b50919050565b601f8211156200044e57600081815260208120601f850160051c81016020861015620004295750805b601f850160051c820191505b818110156200044a5782815560010162000435565b5050505b505050565b81516001600160401b038111156200046f576200046f620003ae565b6200048781620004808454620003c4565b8462000400565b602080601f831160018114620004bf5760008415620004a65750858301515b600019600386901b1c1916600185901b1785556200044a565b600085815260208120601f198616915b82811015620004f057888601518255948401946001909101908401620004cf565b50858210156200050f5787850151600019600388901b60f8161c191681555b5050505050600190811b01905550565b80820180821115620001f857634e487b7160e01b600052601160045260246000fd5b610bae80620005516000396000f3fe608060405234801561001057600080fd5b50600436106100fc5760003560e01c806301ffc9a71461010157806306fdde0314610129578063095ea7b31461013e57806318160ddd1461015157806323b872dd14610163578063248a9ca3146101765780632f2ff15d14610189578063313ce5671461019e57806336568abe146101ad57806340c10f19146101c057806342966c68146101d357806370a08231146101e657806379cc67901461020f57806391d148541461022257806395d89b4114610235578063a217fddf1461023d578063a9059cbb14610245578063d539139314610258578063d547741f1461026d578063dd62ed3e14610280575b600080fd5b61011461010f36600461093d565b610293565b60405190151581526020015b60405180910390f35b6101316102ca565b604051610120919061096e565b61011461014c3660046109d8565b61035c565b6002545b604051908152602001610120565b610114610171366004610a02565b610374565b610155610184366004610a3e565b610398565b61019c610197366004610a57565b6103ad565b005b60405160128152602001610120565b61019c6101bb366004610a57565b6103cf565b61019c6101ce3660046109d8565b610407565b61019c6101e1366004610a3e565b610429565b6101556101f4366004610a83565b6001600160a01b031660009081526020819052604090205490565b61019c61021d3660046109d8565b610436565b610114610230366004610a57565b61044f565b61013161047a565b610155600081565b6101146102533660046109d8565b610489565b610155600080516020610b5983398151915281565b61019c61027b366004610a57565b610497565b61015561028e366004610a9e565b6104b3565b60006001600160e01b03198216637965db0b60e01b14806102c457506301ffc9a760e01b6001600160e01b03198316145b92915050565b6060600380546102d990610ac8565b80601f016020809104026020016040519081016040528092919081815260200182805461030590610ac8565b80156103525780601f1061032757610100808354040283529160200191610352565b820191906000526020600020905b81548152906001019060200180831161033557829003601f168201915b5050505050905090565b60003361036a8185856104de565b5060019392505050565b6000336103828582856104eb565b61038d858585610542565b506001949350505050565b60009081526005602052604090206001015490565b6103b682610398565b6103bf816105a1565b6103c983836105ab565b50505050565b6001600160a01b03811633146103f85760405163334bd91960e11b815260040160405180910390fd5b610402828261063f565b505050565b600080516020610b5983398151915261041f816105a1565b61040283836106ac565b61043333826106e2565b50565b6104418233836104eb565b61044b82826106e2565b5050565b60009182526005602090815260408084206001600160a01b0393909316845291905290205460ff1690565b6060600480546102d990610ac8565b60003361036a818585610542565b6104a082610398565b6104a9816105a1565b6103c9838361063f565b6001600160a01b03918216600090815260016020908152604080832093909416825291909152205490565b6104028383836001610718565b60006104f784846104b3565b90506000198110156103c9578181101561053357828183604051637dc7a0d960e11b815260040161052a93929190610b02565b60405180910390fd5b6103c984848484036000610718565b6001600160a01b03831661056c576000604051634b637e8f60e11b815260040161052a9190610b23565b6001600160a01b03821661059657600060405163ec442f0560e01b815260040161052a9190610b23565b6104028383836107ed565b6104338133610904565b60006105b7838361044f565b6106375760008381526005602090815260408083206001600160a01b03861684529091529020805460ff191660011790556105ef3390565b6001600160a01b0316826001600160a01b0316847f2f8788117e7eff1d82e926ec794901d17c78024a50270940304540a733656f0d60405160405180910390a45060016102c4565b5060006102c4565b600061064b838361044f565b156106375760008381526005602090815260408083206001600160a01b0386168085529252808320805460ff1916905551339286917ff6391f5c32d9c69d2a47ea670b442974b53935d1edc7fd64eb21e047a839171b9190a45060016102c4565b6001600160a01b0382166106d657600060405163ec442f0560e01b815260040161052a9190610b23565b61044b600083836107ed565b6001600160a01b03821661070c576000604051634b637e8f60e11b815260040161052a9190610b23565b61044b826000836107ed565b6001600160a01b03841661074257600060405163e602df0560e01b815260040161052a9190610b23565b6001600160a01b03831661076c576000604051634a1406b160e11b815260040161052a9190610b23565b6001600160a01b03808516600090815260016020908152604080832093871683529290522082905580156103c957826001600160a01b0316846001600160a01b03167f8c5be1e5ebec7d5bd14f71427d1e84f3dd0314c0f7b2291e5b200ac8c7c3b925846040516107df91815260200190565b60405180910390a350505050565b6001600160a01b03831661081857806002600082825461080d9190610b37565b909155506108779050565b6001600160a01b038316600090815260208190526040902054818110156108585783818360405163391434e360e21b815260040161052a93929190610b02565b6001600160a01b03841660009081526020819052604090209082900390555b6001600160a01b038216610893576002805482900390556108b2565b6001600160a01b03821660009081526020819052604090208054820190555b816001600160a01b0316836001600160a01b03167fddf252ad1be2c89b69c2b068fc378daa952ba7f163c4a11628f55a4df523b3ef836040516108f791815260200190565b60405180910390a3505050565b61090e828261044f565b61044b5760405163e2517d3f60e01b81526001600160a01b03821660048201526024810183905260440161052a565b60006020828403121561094f57600080fd5b81356001600160e01b03198116811461096757600080fd5b9392505050565b600060208083528351808285015260005b8181101561099b5785810183015185820160400152820161097f565b506000604082860101526040601f19601f8301168501019250505092915050565b80356001600160a01b03811681146109d357600080fd5b919050565b600080604083850312156109eb57600080fd5b6109f4836109bc565b946020939093013593505050565b600080600060608486031215610a1757600080fd5b610a20846109bc565b9250610a2e602085016109bc565b9150604084013590509250925092565b600060208284031215610a5057600080fd5b5035919050565b60008060408385031215610a6a57600080fd5b82359150610a7a602084016109bc565b90509250929050565b600060208284031215610a9557600080fd5b610967826109bc565b60008060408385031215610ab157600080fd5b610aba836109bc565b9150610a7a602084016109bc565b600181811c90821680610adc57607f821691505b602082108103610afc57634e487b7160e01b600052602260045260246000fd5b50919050565b6001600160a01b039390931683526020830191909152604082015260600190565b6001600160a01b0391909116815260200190565b808201808211156102c457634e487b7160e01b600052601160045260246000fdfe9f2df0fed2c77648de5860a4cc508cd0818c85b8b8a1ab4ceeef8d981c8956a6a2646970667358221220d7f83fdc45296ff03ce0a1fe81208da98112a0d0d6e7a14686bdff5c90f0c92064736f6c63430008140033",
  "linkReferences": {},
  "deployedLinkReferences": {}
}