{
  "_format": "hh-sol-artifact-1",
  "contractName": "TimelockController",
  "sourceName": "@openzeppelin/contracts/governance/TimelockController.sol",
  "abi": [
    {
      "inputs": [
        {
          "internalType": "uint256",
          "name": "minDelay",
          "type": "uint256"
        },
        {
          "internalType": "address[]",
          "name": "proposers",
          "type": "address[]"
        },
        {
          "internalType": "address[]",
          "name": "executors",
          "type": "address[]"
        },
        {
          "internalType": "address",
          "name": "admin",
          "type": "address"
        }
      ],
      "stateMutability": "nonpayable",
      "type": "constructor"
    },
    {
      "inputs": [],
      "name": "AccessControlBadConfirmation",
      "type": "error"
    },
    {
      "inputs": [
        {
          "internalType": "address",
          "name": "account",
          "type": "address"
        },
        {
          "internalType": "bytes32",
          "name": "neededRole",
          "type": "bytes32"
        }
      ],
      "name": "AccessControlUnauthorizedAccount",
      "type": "error"
    },
    {
      "inputs": [],
      "name": "FailedCall",
      "type": "error"
    },
    {
      "inputs": [
        {
          "internalType": "uint256",
          "name": "delay",
          "type": "uint256"
        },
        {
          "internalType": "uint256",
          "name": "minDelay",
          "type": "uint256"
        }
      ],
      "name": "TimelockInsufficientDelay",
      "type": "error"
    },
    {
      "inputs": [
        {
          "internalType": "uint256",
          "name": "targets",
          "type": "uint256"
        },
        {
          "internalType": "uint256",
          "name": "payloads",
          "type": "uint256"
        },
        {
          "internalType": "uint256",
          "name": "values",
          "type": "uint256"
        }
      ],
      "name": "TimelockInvalidOperationLength",
      "type": "error"
    },
    {
      "inputs": [
        {
          "internalType": "address",
          "name": "caller",
          "type": "address"
        }
      ],
      "name": "TimelockUnauthorizedCaller",
      "type": "error"
    },
    {
      "inputs": [
        {
          "internalType": "bytes32",
          "name": "predecessorId",
          "type": "bytes32"
        }
      ],
      "name": "TimelockUnexecutedPredecessor",
      "type": "error"
    },
    {
      "inputs": [
        {
          "internalType": "bytes32",
          "name": "operationId",
          "type": "bytes32"
        },
        {
          "internalType": "bytes32",
          "name": "expectedStates",
          "type": "bytes32"
        }
      ],
      "name": "TimelockUnexpectedOperationState",
      "type": "error"
    },
    {
      "anonymous": false,
      "inputs": [
        {
          "indexed": true,
          "internalType": "bytes32",
          "name": "id",
          "type": "bytes32"
        },
        {
          "indexed": true,
          "internalType": "uint256",
          "name": "index",
          "type": "uint256"
        },
        {
          "indexed": false,
          "internalType": "address",
          "name": "target",
          "type": "address"
        },
        {
          "indexed": false,
          "internalType": "uint256",
          "name": "value",
          "type": "uint256"
        },
        {
          "indexed": false,
          "internalType": "bytes",
          "name": "data",
          "type": "bytes"
        }
      ],
      "name": "CallExecuted",
      "type": "event"
    },
    {
      "anonymous": false,
      "inputs": [
        {
          "indexed": true,
          "internalType": "bytes32",
          "name": "id",
          "type": "bytes32"
        },
        {
          "indexed": false,
          "internalType": "bytes32",
          "name": "salt",
          "type": "bytes32"
        }
      ],
      "name": "CallSalt",
      "type": "event"
    },
    {
      "anonymous": false,
      "inputs": [
        {
          "indexed": true,
          "internalType": "bytes32",
          "name": "id",
          "type": "bytes32"
        },
        {
          "indexed": true,
          "internalType": "uint256",
          "name": "index",
          "type": "uint256"
        },
        {
          "indexed": false,
          "internalType": "address",
          "name": "target",
          "type": "address"
        },
        {
          "indexed": false,
          "internalType": "uint256",
          "name": "value",
          "type": "uint256"
        },
        {
          "indexed": false,
          "internalType": "bytes",
          "name": "data",
          "type": "bytes"
        },
        {
          "indexed": false,
          "internalType": "bytes32",
          "name": "predecessor",
          "type": "bytes32"
        },
        {
          "indexed": false,
          "internalType": "uint256",
          "name": "delay",
          "type": "uint256"
        }
      ],
      "name": "CallScheduled",
      "type": "event"
    },
    {
      "anonymous": false,
      "inputs": [
        {
          "indexed": true,
          "internalType": "bytes32",
          "name": "id",
          "type": "bytes32"
        }
      ],
      "name": "Cancelled",
      "type": "event"
    },
    {
      "anonymous": false,
      "inputs": [
        {
          "indexed": false,
          "internalType": "uint256",
          "name": "oldDuration",
          "type": "uint256"
        },
        {
          "indexed": false,
          "internalType": "uint256",
          "name": "newDuration",
          "type": "uint256"
        }
      ],
      "name": "MinDelayChange",
      "type": "event"
    },
    {
      "anonymous": false,
      "inputs": [
        {
          "indexed": true,
          "internalType": "bytes32",
          "name": "role",
          "type": "bytes32"
        },
        {
          "indexed": true,
          "internalType": "bytes32",
          "name": "previousAdminRole",
          "type": "bytes32"
        },
        {
          "indexed": true,
          "internalType": "bytes32",
          "name": "newAdminRole",
          "type": "bytes32"
        }
      ],
      "name": "RoleAdminChanged",
      "type": "event"
    },
    {
      "anonymous": false,
      "inputs": [
        {
          "indexed": true,
          "internalType": "bytes32",
          "name": "role",
          "type": "bytes32"
        },
        {
          "indexed": true,
          "internalType": "address",
          "name": "account",
          "type": "address"
        },
        {
          "indexed": true,
          "internalType": "address",
          "name": "sender",
          "type": "address"
        }
      ],
      "name": "RoleGranted",
      "type": "event"
    },
    {
      "anonymous": false,
      "inputs": [
        {
          "indexed": true,
          "internalType": "bytes32",
          "name": "role",
          "type": "bytes32"
        },
        {
          "indexed": true,
          "internalType": "address",
          "name": "account",
          "type": "address"
        },
        {
          "indexed": true,
          "internalType": "address",
          "name": "sender",
          "type": "address"
        }
      ],
      "name": "RoleRevoked",
      "type": "event"
    },
    {
      "inputs": [],
      "name": "CANCELLER_ROLE",
      "outputs": [
        {
          "internalType": "bytes32",
          "name": "",
          "type": "bytes32"
        }
      ],
      "stateMutability": "view",
      "type": "function"
    },
    {
      "inputs": [],
      "name": "DEFAULT_ADMIN_ROLE",
      "outputs": [
        {
          "internalType": "bytes32",
          "name": "",
          "type": "bytes32"
        }
      ],
      "stateMutability": "view",
      "type": "function"
    },
    {
      "inputs": [],
      "name": "EXECUTOR_ROLE",
      "outputs": [
        {
          "internalType": "bytes32",
          "name": "",
          "type": "bytes32"
        }
      ],
      "stateMutability": "view",
      "type": "function"
    },
    {
      "inputs": [],
      "name": "PROPOSER_ROLE",
      "outputs": [
        {
          "internalType": "bytes32",
          "name": "",
          "type": "bytes32"
        }
      ],
      "stateMutability": "view",
      "type": "function"
    },
    {
      "inputs": [
        {
          "internalType": "bytes32",
          "name": "id",
          "type": "bytes32"
        }
      ],
      "name": "cancel",
      "outputs": [],
      "stateMutability": "nonpayable",
      "type": "function"
    },
    {
      "inputs": [
        {
          "internalType": "address",
          "name": "target",
          "type": "address"
        },
        {
          "internalType": "uint256",
          "name": "value",
          "type": "uint256"
        },
        {
          "internalType": "bytes",
          "name": "payload",
          "type": "bytes"
        },
        {
          "internalType": "bytes32",
          "name": "predecessor",
          "type": "bytes32"
        },
        {
          "internalType": "bytes32",
          "name": "salt",
          "type": "bytes32"
        }
      ],
      "name": "execute",
      "outputs": [],
      "stateMutability": "payable",
      "type": "function"
    },
    {
      "inputs": [
        {
          "internalType": "address[]",
          "name": "targets",
          "type": "address[]"
        },
        {
          "internalType": "uint256[]",
          "name": "values",
          "type": "uint256[]"
        },
        {
          "internalType": "bytes[]",
          "name": "payloads",
          "type": "bytes[]"
        },
        {
          "internalType": "bytes32",
          "name": "predecessor",
          "type": "bytes32"
        },
        {
          "internalType": "bytes32",
          "name": "salt",
          "type": "bytes32"
        }
      ],
      "name": "executeBatch",
      "outputs": [],
      "stateMutability": "payable",
      "type": "function"
    },
    {
      "inputs": [],
      "name": "getMinDelay",
      "outputs": [
        {
          "internalType": "uint256",
          "name": "",
          "type": "uint256"
        }
      ],
      "stateMutability": "view",
      "type": "function"
    },
    {
      "inputs": [
        {
          "internalType": "bytes32",
          "name": "id",
          "type": "bytes32"
        }
      ],
      "name": "getOperationState",
      "outputs": [
        {
          "internalType": "enum TimelockController.OperationState",
          "name": "",
          "type": "uint8"
        }
      ],
      "stateMutability": "view",
      "type": "function"
    },
    {
      "inputs": [
        {
          "internalType": "bytes32",
          "name": "role",
          "type": "bytes32"
        }
      ],
      "name": "getRoleAdmin",
      "outputs": [
        {
          "internalType": "bytes32",
          "name": "",
          "type": "bytes32"
        }
      ],
      "stateMutability": "view",
      "type": "function"
    },
    {
      "inputs": [
        {
          "internalType": "bytes32",
          "name": "id",
          "type": "bytes32"
        }
      ],
      "name": "getTimestamp",
      "outputs": [
        {
          "internalType": "uint256",
          "name": "",
          "type": "uint256"
        }
      ],
      "stateMutability": "view",
      "type": "function"
    },
    {
      "inputs": [
        {
          "internalType": "bytes32",
          "name": "role",
          "type": "bytes32"
        },
        {
          "internalType": "address",
          "name": "account",
          "type": "address"
        }
      ],
      "name": "grantRole",
      "outputs": [],
      "stateMutability": "nonpayable",
      "type": "function"
    },
    {
      "inputs": [
        {
          "internalType": "bytes32",
          "name": "role",
          "type": "bytes32"
        },
        {
          "internalType": "address",
          "name": "account",
          "type": "address"
        }
      ],
      "name": "hasRole",
      "outputs": [
        {
          "internalType": "bool",
          "name": "",
          "type": "bool"
        }
      ],
      "stateMutability": "view",
      "type": "function"
    },
    {
      "inputs": [
        {
          "internalType": "address",
          "name": "target",
          "type": "address"
        },
        {
          "internalType": "uint256",
          "name": "value",
          "type": "uint256"
        },
        {
          "internalType": "bytes",
          "name": "data",
          "type": "bytes"
        },
        {
          "internalType": "bytes32",
          "name": "predecessor",
          "type": "bytes32"
        },
        {
          "internalType": "bytes32",
          "name": "salt",
          "type": "bytes32"
        }
      ],
      "name": "hashOperation",
      "outputs": [
        {
          "internalType": "bytes32",
          "name": "",
          "type": "bytes32"
        }
      ],
      "stateMutability": "pure",
      "type": "function"
    },
    {
      "inputs": [
        {
          "internalType": "address[]",
          "name": "targets",
          "type": "address[]"
        },
        {
          "internalType": "uint256[]",
          "name": "values",
          "type": "uint256[]"
        },
        {
          "internalType": "bytes[]",
          "name": "payloads",
          "type": "bytes[]"
        },
        {
          "internalType": "bytes32",
          "name": "predecessor",
          "type": "bytes32"
        },
        {
          "internalType": "bytes32",
          "name": "salt",
          "type": "bytes32"
        }
      ],
      "name": "hashOperationBatch",
      "outputs": [
        {
          "internalType": "bytes32",
          "name": "",
          "type": "bytes32"
        }
      ],
      "stateMutability": "pure",
      "type": "function"
    },
    {
      "inputs": [
        {
          "internalType": "bytes32",
          "name": "id",
          "type": "bytes32"
        }
      ],
      "name": "isOperation",
      "outputs": [
        {
          "internalType": "bool",
          "name": "",
          "type": "bool"
        }
      ],
      "stateMutability": "view",
      "type": "function"
    },
    {
      "inputs": [
        {
          "internalType": "bytes32",
          "name": "id",
          "type": "bytes32"
        }
      ],
      "name": "isOperationDone",
      "outputs": [
        {
          "internalType": "bool",
          "name": "",
          "type": "bool"
        }
      ],
      "stateMutability": "view",
      "type": "function"
    },
    {
      "inputs": [
        {
          "internalType": "bytes32",
          "name": "id",
          "type": "bytes32"
        }
      ],
      "name": "isOperationPending",
      "outputs": [
        {
          "internalType": "bool",
          "name": "",
          "type": "bool"
        }
      ],
      "stateMutability": "view",
      "type": "function"
    },
    {
      "inputs": [
        {
          "internalType": "bytes32",
          "name": "id",
          "type": "bytes32"
        }
      ],
      "name": "isOperationReady",
      "outputs": [
        {
          "internalType": "bool",
          "name": "",
          "type": "bool"
        }
      ],
      "stateMutability": "view",
      "type": "function"
    },
    {
      "inputs": [
        {
          "internalType": "address",
          "name": "",
          "type": "address"
        },
        {
          "internalType": "address",
          "name": "",
          "type": "address"
        },
        {
          "internalType": "uint256[]",
          "name": "",
          "type": "uint256[]"
        },
        {
          "internalType": "uint256[]",
          "name": "",
          "type": "uint256[]"
        },
        {
          "internalType": "bytes",
          "name": "",
          "type": "bytes"
        }
      ],
      "name": "onERC1155BatchReceived",
      "outputs": [
        {
          "internalType": "bytes4",
          "name": "",
          "type": "bytes4"
        }
      ],
      "stateMutability": "nonpayable",
      "type": "function"
    },
    {
      "inputs": [
        {
          "internalType": "address",
          "name": "",
          "type": "address"
        },
        {
          "internalType": "address",
          "name": "",
          "type": "address"
        },
        {
          "internalType": "uint256",
          "name": "",
          "type": "uint256"
        },
        {
          "internalType": "uint256",
          "name": "",
          "type": "uint256"
        },
        {
          "internalType": "bytes",
          "name": "",
          "type": "bytes"
        }
      ],
      "name": "onERC1155Received",
      "outputs": [
        {
          "internalType": "bytes4",
          "name": "",
          "type": "bytes4"
        }
      ],
      "stateMutability": "nonpayable",
      "type": "function"
    },
    {
      "inputs": [
        {
          "internalType": "address",
          "name": "",
          "type": "address"
        },
        {
          "internalType": "address",
          "name": "",
          "type": "address"
        },
        {
          "internalType": "uint256",
          "name": "",
          "type": "uint256"
        },
        {
          "internalType": "bytes",
          "name": "",
          "type": "bytes"
        }
      ],
      "name": "onERC721Received",
      "outputs": [
        {
          "internalType": "bytes4",
          "name": "",
          "type": "bytes4"
        }
      ],
      "stateMutability": "nonpayable",
      "type": "function"
    },
    {
      "inputs": [
        {
          "internalType": "bytes32",
          "name": "role",
          "type": "bytes32"
        },
        {
          "internalType": "address",
          "name": "callerConfirmation",
          "type": "address"
        }
      ],
      "name": "renounceRole",
      "outputs": [],
      "stateMutability": "nonpayable",
      "type": "function"
    },
    {
      "inputs": [
        {
          "internalType": "bytes32",
          "name": "role",
          "type": "bytes32"
        },
        {
          "internalType": "address",
          "name": "account",
          "type": "address"
        }
      ],
      "name": "revokeRole",
      "outputs": [],
      "stateMutability": "nonpayable",
      "type": "function"
    },
    {
      "inputs": [
        {
          "internalType": "address",
          "name": "target",
          "type": "address"
        },
        {
          "internalType": "uint256",
          "name": "value",
          "type": "uint256"
        },
        {
          "internalType": "bytes",
          "name": "data",
          "type": "bytes"
        },
        {
          "internalType": "bytes32",
          "name": "predecessor",
          "type": "bytes32"
        },
        {
          "internalType": "bytes32",
          "name": "salt",
          "type": "bytes32"
        },
        {
          "internalType": "uint256",
          "name": "delay",
          "type": "uint256"
        }
      ],
      "name": "schedule",
      "outputs": [],
      "stateMutability": "nonpayable",
      "type": "function"
    },
    {
      "inputs": [
        {
          "internalType": "address[]",
          "name": "targets",
          "type": "address[]"
        },
        {
          "internalType": "uint256[]",
          "name": "values",
          "type": "uint256[]"
        },
        {
          "internalType": "bytes[]",
          "name": "payloads",
          "type": "bytes[]"
        },
        {
          "internalType": "bytes32",
          "name": "predecessor",
          "type": "bytes32"
        },
        {
          "internalType": "bytes32",
          "name": "salt",
          "type": "bytes32"
        },
        {
          "internalType": "uint256",
          "name": "delay",
          "type": "uint256"
        }
      ],
      "name": "scheduleBatch",
      "outputs": [],
      "stateMutability": "nonpayable",
      "type": "function"
    },
    {
      "inputs": [
        {
          "internalType": "bytes4",
          "name": "interfaceId",
          "type": "bytes4"
        }
      ],
      "name": "supportsInterface",
      "outputs": [
        {
          "internalType": "bool",
          "name": "",
          "type": "bool"
        }
      ],
      "stateMutability": "view",
      "type": "function"
    },
    {
      "inputs": [
        {
          "internalType": "uint256",
          "name": "newDelay",
          "type": "uint256"
        }
      ],
      "name": "updateDelay",
      "outputs": [],
      "stateMutability": "nonpayable",
      "type": "function"
    },
    {
      "stateMutability": "payable",
      "type": "receive"
    }
  ],
  "bytecode": "0x60806040523480156200001157600080fd5b5060405162001db738038062001db7833981016040819052620000349162000340565b62000041600030620001b1565b506001600160a01b0381161562000061576200005f600082620001b1565b505b60005b83518110156200010b57620000bc7fb09aa5aeb3702cfd50b6b62bc4532604938f21248a27a1d5ca736082b6819cc1858381518110620000a857620000a8620003c7565b6020026020010151620001b160201b60201c565b50620000f77ffd643c72710c63c0180259aba6b2d05451e3591a24e58b62239378085726f783858381518110620000a857620000a8620003c7565b506200010381620003dd565b905062000064565b5060005b82518110156200016757620001537fd8aa0f3194971a2a116679f7c2090f6939c8d4e01a2a8d7e41d55e5351469e63848381518110620000a857620000a8620003c7565b506200015f81620003dd565b90506200010f565b5060028490556040805160008152602081018690527f11c24f4ead16507c69ac467fbd5e4eed5fb5c699626d2cc6d66421df253886d5910160405180910390a15050505062000405565b6000828152602081815260408083206001600160a01b038516845290915281205460ff1662000256576000838152602081815260408083206001600160a01b03861684529091529020805460ff191660011790556200020d3390565b6001600160a01b0316826001600160a01b0316847f2f8788117e7eff1d82e926ec794901d17c78024a50270940304540a733656f0d60405160405180910390a45060016200025a565b5060005b92915050565b634e487b7160e01b600052604160045260246000fd5b80516001600160a01b03811681146200028e57600080fd5b919050565b600082601f830112620002a557600080fd5b815160206001600160401b0380831115620002c457620002c462000260565b8260051b604051601f19603f83011681018181108482111715620002ec57620002ec62000260565b6040529384528581018301938381019250878511156200030b57600080fd5b83870191505b848210156200033557620003258262000276565b8352918301919083019062000311565b979650505050505050565b600080600080608085870312156200035757600080fd5b845160208601519094506001600160401b03808211156200037757600080fd5b620003858883890162000293565b945060408701519150808211156200039c57600080fd5b50620003ab8782880162000293565b925050620003bc6060860162000276565b905092959194509250565b634e487b7160e01b600052603260045260246000fd5b600060018201620003fe57634e487b7160e01b600052601160045260246000fd5b5060010190565b6119a280620004156000396000f3fe60806040526004361061014b5760003560e01c806301d5062a1461015757806301ffc9a71461017957806307bd0265146101ae578063134008d3146101de57806313bc9f20146101f1578063150b7a0214610211578063248a9ca3146102555780632ab0f529146102755780632f2ff15d1461029557806331d50750146102b557806336568abe146102d5578063584b153e146102f557806364d62353146103155780637958004c146103355780638065657f146103625780638f2a0bb0146103825780638f61f4f5146103a257806391d14854146103c4578063a217fddf146103e4578063b08e51c0146103f9578063b1c5f4271461041b578063bc197c811461043b578063c4d252f514610467578063d45c443514610487578063d547741f146104b4578063e38335e5146104d4578063f23a6e61146104e7578063f27a0c921461051357600080fd5b3661015257005b600080fd5b34801561016357600080fd5b50610177610172366004611024565b610528565b005b34801561018557600080fd5b50610199610194366004611098565b6105c8565b60405190151581526020015b60405180910390f35b3480156101ba57600080fd5b506101d06000805160206118ed83398151915281565b6040519081526020016101a5565b6101776101ec3660046110c2565b6105d9565b3480156101fd57600080fd5b5061019961020c36600461112d565b61066a565b34801561021d57600080fd5b5061023c61022c3660046111fb565b630a85bd0160e11b949350505050565b6040516001600160e01b031990911681526020016101a5565b34801561026157600080fd5b506101d061027036600461112d565b610690565b34801561028157600080fd5b5061019961029036600461112d565b6106a5565b3480156102a157600080fd5b506101776102b0366004611262565b6106ae565b3480156102c157600080fd5b506101996102d036600461112d565b6106d0565b3480156102e157600080fd5b506101776102f0366004611262565b6106f5565b34801561030157600080fd5b5061019961031036600461112d565b61072d565b34801561032157600080fd5b5061017761033036600461112d565b610773565b34801561034157600080fd5b5061035561035036600461112d565b6107e5565b6040516101a591906112a4565b34801561036e57600080fd5b506101d061037d3660046110c2565b610830565b34801561038e57600080fd5b5061017761039d366004611310565b61086f565b3480156103ae57600080fd5b506101d06000805160206118cd83398151915281565b3480156103d057600080fd5b506101996103df366004611262565b6109c4565b3480156103f057600080fd5b506101d0600081565b34801561040557600080fd5b506101d060008051602061192d83398151915281565b34801561042757600080fd5b506101d06104363660046113c1565b6109ed565b34801561044757600080fd5b5061023c6104563660046114e8565b63bc197c8160e01b95945050505050565b34801561047357600080fd5b5061017761048236600461112d565b610a32565b34801561049357600080fd5b506101d06104a236600461112d565b60009081526001602052604090205490565b3480156104c057600080fd5b506101776104cf366004611262565b610ac4565b6101776104e23660046113c1565b610ae0565b3480156104f357600080fd5b5061023c610502366004611591565b63f23a6e6160e01b95945050505050565b34801561051f57600080fd5b506002546101d0565b6000805160206118cd83398151915261054081610c3e565b6000610550898989898989610830565b905061055c8184610c4b565b60008160008051602061190d8339815191528b8b8b8b8b8a6040516105869695949392919061161e565b60405180910390a383156105bd578060008051602061194d833981519152856040516105b491815260200190565b60405180910390a25b505050505050505050565b60006105d382610cd2565b92915050565b6000805160206118ed8339815191526105f38160006109c4565b610601576106018133610cf7565b6000610611888888888888610830565b905061061d8185610d34565b61062988888888610d82565b6000816000805160206118ad8339815191528a8a8a8a60405161064f949392919061165b565b60405180910390a361066081610dfa565b5050505050505050565b600060025b610678836107e5565b60038111156106895761068961128e565b1492915050565b60009081526020819052604090206001015490565b6000600361066f565b6106b782610690565b6106c081610c3e565b6106ca8383610e26565b50505050565b6000806106dc836107e5565b60038111156106ed576106ed61128e565b141592915050565b6001600160a01b038116331461071e5760405163334bd91960e11b815260040160405180910390fd5b6107288282610eb8565b505050565b600080610739836107e5565b9050600181600381111561074f5761074f61128e565b148061076c5750600281600381111561076a5761076a61128e565b145b9392505050565b333081146107a45760405163e2850c5960e01b81526001600160a01b03821660048201526024015b60405180910390fd5b7f11c24f4ead16507c69ac467fbd5e4eed5fb5c699626d2cc6d66421df253886d5600254836040516107d792919061168d565b60405180910390a150600255565b600081815260016020526040812054806000036108055750600092915050565b600181036108165750600392915050565b428111156108275750600192915050565b50600292915050565b600086868686868660405160200161084d9695949392919061161e565b6040516020818303038152906040528051906020012090509695505050505050565b6000805160206118cd83398151915261088781610c3e565b88871415806108965750888514155b156108bd576040516001624fcdef60e01b0319815261079b908a9087908a9060040161169b565b60006108cf8b8b8b8b8b8b8b8b6109ed565b90506108db8184610c4b565b60005b8a81101561098757808260008051602061190d8339815191528e8e85818110610909576109096116b1565b905060200201602081019061091e91906116c7565b8d8d86818110610930576109306116b1565b905060200201358c8c87818110610949576109496116b1565b905060200281019061095b91906116e2565b8c8b60405161096f9695949392919061161e565b60405180910390a36109808161173e565b90506108de565b5083156109b7578060008051602061194d833981519152856040516109ae91815260200190565b60405180910390a25b5050505050505050505050565b6000918252602082815260408084206001600160a01b0393909316845291905290205460ff1690565b60008888888888888888604051602001610a0e9897969594939291906117e8565b60405160208183030381529060405280519060200120905098975050505050505050565b60008051602061192d833981519152610a4a81610c3e565b610a538261072d565b610a885781610a626002610f23565b610a6c6001610f23565b17604051635ead8eb560e01b815260040161079b92919061168d565b6000828152600160205260408082208290555183917fbaa1eb22f2a492ba1a5fea61b8df4d27c6c8b5f3971e63bb58fa14ff72eedb7091a25050565b610acd82610690565b610ad681610c3e565b6106ca8383610eb8565b6000805160206118ed833981519152610afa8160006109c4565b610b0857610b088133610cf7565b8786141580610b175750878414155b15610b3e576040516001624fcdef60e01b0319815261079b9089908690899060040161169b565b6000610b508a8a8a8a8a8a8a8a6109ed565b9050610b5c8185610d34565b60005b89811015610c285760008b8b83818110610b7b57610b7b6116b1565b9050602002016020810190610b9091906116c7565b905060008a8a84818110610ba657610ba66116b1565b9050602002013590503660008a8a86818110610bc457610bc46116b1565b9050602002810190610bd691906116e2565b91509150610be684848484610d82565b84866000805160206118ad83398151915286868686604051610c0b949392919061165b565b60405180910390a35050505080610c219061173e565b9050610b5f565b50610c3281610dfa565b50505050505050505050565b610c488133610cf7565b50565b610c54826106d0565b15610c7f5781610c646000610f23565b604051635ead8eb560e01b815260040161079b92919061168d565b6000610c8a60025490565b905080821015610cb1578181604051635433660960e01b815260040161079b92919061168d565b610cbb8242611889565b600093845260016020526040909320929092555050565b60006001600160e01b03198216630271189760e51b14806105d357506105d382610f46565b610d0182826109c4565b610d305760405163e2517d3f60e01b81526001600160a01b03821660048201526024810183905260440161079b565b5050565b610d3d8261066a565b610d4c5781610c646002610f23565b8015801590610d615750610d5f816106a5565b155b15610d305760405163121534c360e31b81526004810182905260240161079b565b600080856001600160a01b0316858585604051610da092919061189c565b60006040518083038185875af1925050503d8060008114610ddd576040519150601f19603f3d011682016040523d82523d6000602084013e610de2565b606091505b5091509150610df18282610f7b565b50505050505050565b610e038161066a565b610e125780610c646002610f23565b600090815260016020819052604090912055565b6000610e3283836109c4565b610eb0576000838152602081815260408083206001600160a01b03861684529091529020805460ff19166001179055610e683390565b6001600160a01b0316826001600160a01b0316847f2f8788117e7eff1d82e926ec794901d17c78024a50270940304540a733656f0d60405160405180910390a45060016105d3565b5060006105d3565b6000610ec483836109c4565b15610eb0576000838152602081815260408083206001600160a01b0386168085529252808320805460ff1916905551339286917ff6391f5c32d9c69d2a47ea670b442974b53935d1edc7fd64eb21e047a839171b9190a45060016105d3565b6000816003811115610f3757610f3761128e565b600160ff919091161b92915050565b60006001600160e01b03198216637965db0b60e01b14806105d357506301ffc9a760e01b6001600160e01b03198316146105d3565b606082610f9057610f8b82610f97565b6105d3565b50806105d3565b805115610fa75780518082602001fd5b60405163d6bda27560e01b815260040160405180910390fd5b80356001600160a01b0381168114610fd757600080fd5b919050565b60008083601f840112610fee57600080fd5b5081356001600160401b0381111561100557600080fd5b60208301915083602082850101111561101d57600080fd5b9250929050565b600080600080600080600060c0888a03121561103f57600080fd5b61104888610fc0565b96506020880135955060408801356001600160401b0381111561106a57600080fd5b6110768a828b01610fdc565b989b979a50986060810135976080820135975060a09091013595509350505050565b6000602082840312156110aa57600080fd5b81356001600160e01b03198116811461076c57600080fd5b60008060008060008060a087890312156110db57600080fd5b6110e487610fc0565b95506020870135945060408701356001600160401b0381111561110657600080fd5b61111289828a01610fdc565b979a9699509760608101359660809091013595509350505050565b60006020828403121561113f57600080fd5b5035919050565b634e487b7160e01b600052604160045260246000fd5b604051601f8201601f191681016001600160401b038111828210171561118457611184611146565b604052919050565b600082601f83011261119d57600080fd5b81356001600160401b038111156111b6576111b6611146565b6111c9601f8201601f191660200161115c565b8181528460208386010111156111de57600080fd5b816020850160208301376000918101602001919091529392505050565b6000806000806080858703121561121157600080fd5b61121a85610fc0565b935061122860208601610fc0565b92506040850135915060608501356001600160401b0381111561124a57600080fd5b6112568782880161118c565b91505092959194509250565b6000806040838503121561127557600080fd5b8235915061128560208401610fc0565b90509250929050565b634e487b7160e01b600052602160045260246000fd5b60208101600483106112c657634e487b7160e01b600052602160045260246000fd5b91905290565b60008083601f8401126112de57600080fd5b5081356001600160401b038111156112f557600080fd5b6020830191508360208260051b850101111561101d57600080fd5b600080600080600080600080600060c08a8c03121561132e57600080fd5b89356001600160401b038082111561134557600080fd5b6113518d838e016112cc565b909b50995060208c013591508082111561136a57600080fd5b6113768d838e016112cc565b909950975060408c013591508082111561138f57600080fd5b5061139c8c828d016112cc565b9a9d999c50979a969997986060880135976080810135975060a0013595509350505050565b60008060008060008060008060a0898b0312156113dd57600080fd5b88356001600160401b03808211156113f457600080fd5b6114008c838d016112cc565b909a50985060208b013591508082111561141957600080fd5b6114258c838d016112cc565b909850965060408b013591508082111561143e57600080fd5b5061144b8b828c016112cc565b999c989b509699959896976060870135966080013595509350505050565b600082601f83011261147a57600080fd5b813560206001600160401b0382111561149557611495611146565b8160051b6114a482820161115c565b92835284810182019282810190878511156114be57600080fd5b83870192505b848310156114dd578235825291830191908301906114c4565b979650505050505050565b600080600080600060a0868803121561150057600080fd5b61150986610fc0565b945061151760208701610fc0565b935060408601356001600160401b038082111561153357600080fd5b61153f89838a01611469565b9450606088013591508082111561155557600080fd5b61156189838a01611469565b9350608088013591508082111561157757600080fd5b506115848882890161118c565b9150509295509295909350565b600080600080600060a086880312156115a957600080fd5b6115b286610fc0565b94506115c060208701610fc0565b9350604086013592506060860135915060808601356001600160401b038111156115e957600080fd5b6115848882890161118c565b81835281816020850137506000828201602090810191909152601f909101601f19169091010190565b60018060a01b038716815285602082015260a06040820152600061164660a0830186886115f5565b60608301949094525060800152949350505050565b60018060a01b03851681528360208201526060604082015260006116836060830184866115f5565b9695505050505050565b918252602082015260400190565b9283526020830191909152604082015260600190565b634e487b7160e01b600052603260045260246000fd5b6000602082840312156116d957600080fd5b61076c82610fc0565b6000808335601e198436030181126116f957600080fd5b8301803591506001600160401b0382111561171357600080fd5b60200191503681900382131561101d57600080fd5b634e487b7160e01b600052601160045260246000fd5b60006001820161175057611750611728565b5060010190565b81835260006020808501808196508560051b810191508460005b878110156117db5782840389528135601e1988360301811261179257600080fd5b870185810190356001600160401b038111156117ad57600080fd5b8036038213156117bc57600080fd5b6117c78682846115f5565b9a87019a9550505090840190600101611771565b5091979650505050505050565b60a0808252810188905260008960c08301825b8b811015611829576001600160a01b0361181484610fc0565b168252602092830192909101906001016117fb565b5083810360208501528881526001600160fb1b0389111561184957600080fd5b8860051b9150818a602083013701828103602090810160408501526118719082018789611757565b60608401959095525050608001529695505050505050565b808201808211156105d3576105d3611728565b818382376000910190815291905056fec2617efa69bab66782fa219543714338489c4e9e178271560a91b82c3f612b58b09aa5aeb3702cfd50b6b62bc4532604938f21248a27a1d5ca736082b6819cc1d8aa0f3194971a2a116679f7c2090f6939c8d4e01a2a8d7e41d55e5351469e634cf4410cc57040e44862ef0f45f3dd5a5e02db8eb8add648d4b0e236f1d07dcafd643c72710c63c0180259aba6b2d05451e3591a24e58b62239378085726f78320fda5fd27a1ea7bf5b9567f143ac5470bb059374a27e8f67cb44f946f6d0387a2646970667358221220132c3bf1bb47a6465f7a92428077065b6c882f94558227308fdd9fb3d6bf524d64736f6c63430008140033",
  "linkReferences": {},
  "deployedLinkReferences": {}
}