{
  "_format": "hh-sol-artifact-1",
  "contractName": "SystemToken",
  "sourceName": "src/contracts/SystemToken.sol",
  "abi": [
    {
      "inputs": [
        {
          "internalType": "uint256",
          "name": "initialSupply",
          "type": "uint256"
        },
        {
          "internalType": "address",
          "name": "executiveAddress",
          "type": "address"
        }
      ],
      "stateMutability": "nonpayable",
      "type": "constructor"
    },
    {
      "inputs": [],
      "name": "AccessControlBadConfirmation",
      "type": "error"
    },
    {
      "inputs": [
        {
          "internalType": "address",
          "name": "account",
          "type": "address"
        },
        {
          "internalType": "bytes32",
          "name": "neededRole",
          "type": "bytes32"
        }
      ],
      "name": "AccessControlUnauthorizedAccount",
      "type": "error"
    },
    {
      "inputs": [
        {
          "internalType": "address",
          "name": "spender",
          "type": "address"
        },
        {
          "internalType": "uint256",
          "name": "allowance",
          "type": "uint256"
        },
        {
          "internalType": "uint256",
          "name": "needed",
          "type": "uint256"
        }
      ],
      "name": "ERC20InsufficientAllowance",
      "type": "error"
    },
    {
      "inputs": [
        {
          "internalType": "address",
          "name": "sender",
          "type": "address"
        },
        {
          "internalType": "uint256",
          "name": "balance",
          "type": "uint256"
        },
        {
          "internalType": "uint256",
          "name": "needed",
          "type": "uint256"
        }
      ],
      "name": "ERC20InsufficientBalance",
      "type": "error"
    },
    {
      "inputs": [
        {
          "internalType": "address",
          "name": "approver",
          "type": "address"
        }
      ],
      "name": "ERC20InvalidApprover",
      "type": "error"
    },
    {
      "inputs": [
        {
          "internalType": "address",
          "name": "receiver",
          "type": "address"
        }
      ],
      "name": "ERC20InvalidReceiver",
      "type": "error"
    },
    {
      "inputs": [
        {
          "internalType": "address",
          "name": "sender",
          "type": "address"
        }
      ],
      "name": "ERC20InvalidSender",
      "type": "error"
    },
    {
      "inputs": [
        {
          "internalType": "address",
          "name": "spender",
          "type": "address"
        }
      ],
      "name": "ERC20InvalidSpender",
      "type": "error"
    },
    {
      "anonymous": false,
      "inputs": [
        {
          "indexed": true,
          "internalType": "address",
          "name": "owner",
          "type": "address"
        },
        {
          "indexed": true,
          "internalType": "address",
          "name": "spender",
          "type": "address"
        },
        {
          "indexed": false,
          "internalType": "uint256",
          "name": "value",
          "type": "uint256"
        }
      ],
      "name": "Approval",
      "type": "event"
    },
    {
      "anonymous": false,
      "inputs": [
        {
          "indexed": true,
          "internalType": "bytes32",
          "name": "role",
          "type": "bytes32"
        },
        {
          "indexed": true,
          "internalType": "bytes32",
          "name": "previousAdminRole",
          "type": "bytes32"
        },
        {
          "indexed": true,
          "internalType": "bytes32",
          "name": "newAdminRole",
          "type": "bytes32"
        }
      ],
      "name": "RoleAdminChanged",
      "type": "event"
    },
    {
      "anonymous": false,
      "inputs": [
        {
          "indexed": true,
          "internalType": "bytes32",
          "name": "role",
          "type": "bytes32"
        },
        {
          "indexed": true,
          "internalType": "address",
          "name": "account",
          "type": "address"
        },
        {
          "indexed": true,
          "internalType": "address",
          "name": "sender",
          "type": "address"
        }
      ],
      "name": "RoleGranted",
      "type": "event"
    },
    {
      "anonymous": false,
      "inputs": [
        {
          "indexed": true,
          "internalType": "bytes32",
          "name": "role",
          "type": "bytes32"
        },
        {
          "indexed": true,
          "internalType": "address",
          "name": "account",
          "type": "address"
        },
        {
          "indexed": true,
          "internalType": "address",
          "name": "sender",
          "type": "address"
        }
      ],
      "name": "RoleRevoked",
      "type": "event"
    },
    {
      "anonymous": false,
      "inputs": [
        {
          "indexed": true,
          "internalType": "address",
          "name": "from",
          "type": "address"
        },
        {
          "indexed": true,
          "internalType": "address",
          "name": "to",
          "type": "address"
        },
        {
          "indexed": false,
          "internalType": "uint256",
          "name": "value",
          "type": "uint256"
        }
      ],
      "name": "Transfer",
      "type": "event"
    },
    {
      "inputs": [],
      "name": "DEFAULT_ADMIN_ROLE",
      "outputs": [
        {
          "internalType": "bytes32",
          "name": "",
          "type": "bytes32"
        }
      ],
      "stateMutability": "view",
      "type": "function"
    },
    {
      "inputs": [],
      "name": "EXECUTIVE_ROLE",
      "outputs": [
        {
          "internalType": "bytes32",
          "name": "",
          "type": "bytes32"
        }
      ],
      "stateMutability": "view",
      "type": "function"
    },
    {
      "inputs": [
        {
          "internalType": "address",
          "name": "owner",
          "type": "address"
        },
        {
          "internalType": "address",
          "name": "spender",
          "type": "address"
        }
      ],
      "name": "allowance",
      "outputs": [
        {
          "internalType": "uint256",
          "name": "",
          "type": "uint256"
        }
      ],
      "stateMutability": "view",
      "type": "function"
    },
    {
      "inputs": [
        {
          "internalType": "address",
          "name": "spender",
          "type": "address"
        },
        {
          "internalType": "uint256",
          "name": "value",
          "type": "uint256"
        }
      ],
      "name": "approve",
      "outputs": [
        {
          "internalType": "bool",
          "name": "",
          "type": "bool"
        }
      ],
      "stateMutability": "nonpayable",
      "type": "function"
    },
    {
      "inputs": [
        {
          "internalType": "address",
          "name": "account",
          "type": "address"
        }
      ],
      "name": "balanceOf",
      "outputs": [
        {
          "internalType": "uint256",
          "name": "",
          "type": "uint256"
        }
      ],
      "stateMutability": "view",
      "type": "function"
    },
    {
      "inputs": [],
      "name": "decimals",
      "outputs": [
        {
          "internalType": "uint8",
          "name": "",
          "type": "uint8"
        }
      ],
      "stateMutability": "view",
      "type": "function"
    },
    {
      "inputs": [
        {
          "internalType": "bytes32",
          "name": "role",
          "type": "bytes32"
        }
      ],
      "name": "getRoleAdmin",
      "outputs": [
        {
          "internalType": "bytes32",
          "name": "",
          "type": "bytes32"
        }
      ],
      "stateMutability": "view",
      "type": "function"
    },
    {
      "inputs": [
        {
          "internalType": "bytes32",
          "name": "role",
          "type": "bytes32"
        },
        {
          "internalType": "address",
          "name": "account",
          "type": "address"
        }
      ],
      "name": "grantRole",
      "outputs": [],
      "stateMutability": "nonpayable",
      "type": "function"
    },
    {
      "inputs": [
        {
          "internalType": "bytes32",
          "name": "role",
          "type": "bytes32"
        },
        {
          "internalType": "address",
          "name": "account",
          "type": "address"
        }
      ],
      "name": "hasRole",
      "outputs": [
        {
          "internalType": "bool",
          "name": "",
          "type": "bool"
        }
      ],
      "stateMutability": "view",
      "type": "function"
    },
    {
      "inputs": [
        {
          "internalType": "address",
          "name": "to",
          "type": "address"
        },
        {
          "internalType": "uint256",
          "name": "amount",
          "type": "uint256"
        }
      ],
      "name": "mint",
      "outputs": [],
      "stateMutability": "nonpayable",
      "type": "function"
    },
    {
      "inputs": [],
      "name": "name",
      "outputs": [
        {
          "internalType": "string",
          "name": "",
          "type": "string"
        }
      ],
      "stateMutability": "view",
      "type": "function"
    },
    {
      "inputs": [
        {
          "internalType": "bytes32",
          "name": "role",
          "type": "bytes32"
        },
        {
          "internalType": "address",
          "name": "callerConfirmation",
          "type": "address"
        }
      ],
      "name": "renounceRole",
      "outputs": [],
      "stateMutability": "nonpayable",
      "type": "function"
    },
    {
      "inputs": [
        {
          "internalType": "bytes32",
          "name": "role",
          "type": "bytes32"
        },
        {
          "internalType": "address",
          "name": "account",
          "type": "address"
        }
      ],
      "name": "revokeRole",
      "outputs": [],
      "stateMutability": "nonpayable",
      "type": "function"
    },
    {
      "inputs": [
        {
          "internalType": "bytes4",
          "name": "interfaceId",
          "type": "bytes4"
        }
      ],
      "name": "supportsInterface",
      "outputs": [
        {
          "internalType": "bool",
          "name": "",
          "type": "bool"
        }
      ],
      "stateMutability": "view",
      "type": "function"
    },
    {
      "inputs": [],
      "name": "symbol",
      "outputs": [
        {
          "internalType": "string",
          "name": "",
          "type": "string"
        }
      ],
      "stateMutability": "view",
      "type": "function"
    },
    {
      "inputs": [],
      "name": "totalSupply",
      "outputs": [
        {
          "internalType": "uint256",
          "name": "",
          "type": "uint256"
        }
      ],
      "stateMutability": "view",
      "type": "function"
    },
    {
      "inputs": [
        {
          "internalType": "address",
          "name": "to",
          "type": "address"
        },
        {
          "internalType": "uint256",
          "name": "value",
          "type": "uint256"
        }
      ],
      "name": "transfer",
      "outputs": [
        {
          "internalType": "bool",
          "name": "",
          "type": "bool"
        }
      ],
      "stateMutability": "nonpayable",
      "type": "function"
    },
    {
      "inputs": [
        {
          "internalType": "address",
          "name": "from",
          "type": "address"
        },
        {
          "internalType": "address",
          "name": "to",
          "type": "address"
        },
        {
          "internalType": "uint256",
          "name": "value",
          "type": "uint256"
        }
      ],
      "name": "transferFrom",
      "outputs": [
        {
          "internalType": "bool",
          "name": "",
          "type": "bool"
        }
      ],
      "stateMutability": "nonpayable",
      "type": "function"
    }
  ],
  "bytecode": "0x60806040523480156200001157600080fd5b506040516200107738038062001077833981016040819052620000349162000378565b6040518060400160405280600b81526020016a29bcb9ba32b6aa37b5b2b760a91b8152506040518060400160405280600681526020016553595354454d60d01b81525081600390816200008891906200045c565b5060046200009782826200045c565b5050506001600160a01b038116620001055760405162461bcd60e51b815260206004820152602660248201527f53797374656d546f6b656e3a20696e76616c696420657865637574697665206160448201526564647265737360d01b60648201526084015b60405180910390fd5b6200011260003362000154565b506200013f7fe4eefbff6f5adc6b3fe0d11f14a3859decb3df1f4c82933fc6c1f8b498cc4a7d8262000154565b506200014c818362000207565b50506200054a565b60008281526005602090815260408083206001600160a01b038516845290915281205460ff16620001fd5760008381526005602090815260408083206001600160a01b03861684529091529020805460ff19166001179055620001b43390565b6001600160a01b0316826001600160a01b0316847f2f8788117e7eff1d82e926ec794901d17c78024a50270940304540a733656f0d60405160405180910390a450600162000201565b5060005b92915050565b6001600160a01b038216620002335760405163ec442f0560e01b815260006004820152602401620000fc565b620002416000838362000245565b5050565b6001600160a01b0383166200027457806002600082825462000268919062000528565b90915550620002e89050565b6001600160a01b03831660009081526020819052604090205481811015620002c95760405163391434e360e21b81526001600160a01b03851660048201526024810182905260448101839052606401620000fc565b6001600160a01b03841660009081526020819052604090209082900390555b6001600160a01b038216620003065760028054829003905562000325565b6001600160a01b03821660009081526020819052604090208054820190555b816001600160a01b0316836001600160a01b03167fddf252ad1be2c89b69c2b068fc378daa952ba7f163c4a11628f55a4df523b3ef836040516200036b91815260200190565b60405180910390a3505050565b600080604083850312156200038c57600080fd5b825160208401519092506001600160a01b0381168114620003ac57600080fd5b809150509250929050565b634e487b7160e01b600052604160045260246000fd5b600181811c90821680620003e257607f821691505b6020821081036200040357634e487b7160e01b600052602260045260246000fd5b50919050565b601f8211156200045757600081815260208120601f850160051c81016020861015620004325750805b601f850160051c820191505b8181101562000453578281556001016200043e565b5050505b505050565b81516001600160401b03811115620004785762000478620003b7565b6200049081620004898454620003cd565b8462000409565b602080601f831160018114620004c85760008415620004af5750858301515b600019600386901b1c1916600185901b17855562000453565b600085815260208120601f198616915b82811015620004f957888601518255948401946001909101908401620004d8565b5085821015620005185787850151600019600388901b60f8161c191681555b5050505050600190811b01905550565b808201808211156200020157634e487b7160e01b600052601160045260246000fd5b610b1d806200055a6000396000f3fe608060405234801561001057600080fd5b50600436106100e65760003560e01c806301ffc9a7146100eb57806306fdde0314610113578063095ea7b31461012857806318160ddd1461013b57806323b872dd1461014d578063248a9ca3146101605780632f2ff15d14610173578063313ce5671461018857806336568abe1461019757806340c10f19146101aa57806370a08231146101bd57806391d14854146101e657806395d89b41146101f9578063a217fddf14610201578063a9059cbb14610209578063aecf62f01461021c578063d547741f14610231578063dd62ed3e14610244575b600080fd5b6100fe6100f93660046108ac565b610257565b60405190151581526020015b60405180910390f35b61011b61028e565b60405161010a91906108dd565b6100fe610136366004610947565b610320565b6002545b60405190815260200161010a565b6100fe61015b366004610971565b610338565b61013f61016e3660046109ad565b61035c565b6101866101813660046109c6565b610371565b005b6040516012815260200161010a565b6101866101a53660046109c6565b610393565b6101866101b8366004610947565b6103cb565b61013f6101cb3660046109f2565b6001600160a01b031660009081526020819052604090205490565b6100fe6101f43660046109c6565b6103ed565b61011b610418565b61013f600081565b6100fe610217366004610947565b610427565b61013f600080516020610ac883398151915281565b61018661023f3660046109c6565b610435565b61013f610252366004610a0d565b610451565b60006001600160e01b03198216637965db0b60e01b148061028857506301ffc9a760e01b6001600160e01b03198316145b92915050565b60606003805461029d90610a37565b80601f01602080910402602001604051908101604052809291908181526020018280546102c990610a37565b80156103165780601f106102eb57610100808354040283529160200191610316565b820191906000526020600020905b8154815290600101906020018083116102f957829003601f168201915b5050505050905090565b60003361032e81858561047c565b5060019392505050565b600033610346858285610489565b6103518585856104e0565b506001949350505050565b60009081526005602052604090206001015490565b61037a8261035c565b6103838161053f565b61038d838361054c565b50505050565b6001600160a01b03811633146103bc5760405163334bd91960e11b815260040160405180910390fd5b6103c682826105e0565b505050565b600080516020610ac88339815191526103e38161053f565b6103c6838361064d565b60009182526005602090815260408084206001600160a01b0393909316845291905290205460ff1690565b60606004805461029d90610a37565b60003361032e8185856104e0565b61043e8261035c565b6104478161053f565b61038d83836105e0565b6001600160a01b03918216600090815260016020908152604080832093909416825291909152205490565b6103c68383836001610687565b60006104958484610451565b905060001981101561038d57818110156104d157828183604051637dc7a0d960e11b81526004016104c893929190610a71565b60405180910390fd5b61038d84848484036000610687565b6001600160a01b03831661050a576000604051634b637e8f60e11b81526004016104c89190610a92565b6001600160a01b03821661053457600060405163ec442f0560e01b81526004016104c89190610a92565b6103c683838361075c565b6105498133610873565b50565b600061055883836103ed565b6105d85760008381526005602090815260408083206001600160a01b03861684529091529020805460ff191660011790556105903390565b6001600160a01b0316826001600160a01b0316847f2f8788117e7eff1d82e926ec794901d17c78024a50270940304540a733656f0d60405160405180910390a4506001610288565b506000610288565b60006105ec83836103ed565b156105d85760008381526005602090815260408083206001600160a01b0386168085529252808320805460ff1916905551339286917ff6391f5c32d9c69d2a47ea670b442974b53935d1edc7fd64eb21e047a839171b9190a4506001610288565b6001600160a01b03821661067757600060405163ec442f0560e01b81526004016104c89190610a92565b6106836000838361075c565b5050565b6001600160a01b0384166106b157600060405163e602df0560e01b81526004016104c89190610a92565b6001600160a01b0383166106db576000604051634a1406b160e11b81526004016104c89190610a92565b6001600160a01b038085166000908152600160209081526040808320938716835292905220829055801561038d57826001600160a01b0316846001600160a01b03167f8c5be1e5ebec7d5bd14f71427d1e84f3dd0314c0f7b2291e5b200ac8c7c3b9258460405161074e91815260200190565b60405180910390a350505050565b6001600160a01b03831661078757806002600082825461077c9190610aa6565b909155506107e69050565b6001600160a01b038316600090815260208190526040902054818110156107c75783818360405163391434e360e21b81526004016104c893929190610a71565b6001600160a01b03841660009081526020819052604090209082900390555b6001600160a01b03821661080257600280548290039055610821565b6001600160a01b03821660009081526020819052604090208054820190555b816001600160a01b0316836001600160a01b03167fddf252ad1be2c89b69c2b068fc378daa952ba7f163c4a11628f55a4df523b3ef8360405161086691815260200190565b60405180910390a3505050565b61087d82826103ed565b6106835760405163e2517d3f60e01b81526001600160a01b0382166004820152602481018390526044016104c8565b6000602082840312156108be57600080fd5b81356001600160e01b0319811681146108d657600080fd5b9392505050565b600060208083528351808285015260005b8181101561090a578581018301518582016040015282016108ee565b506000604082860101526040601f19601f8301168501019250505092915050565b80356001600160a01b038116811461094257600080fd5b919050565b6000806040838503121561095a57600080fd5b6109638361092b565b946020939093013593505050565b60008060006060848603121561098657600080fd5b61098f8461092b565b925061099d6020850161092b565b9150604084013590509250925092565b6000602082840312156109bf57600080fd5b5035919050565b600080604083850312156109d957600080fd5b823591506109e96020840161092b565b90509250929050565b600060208284031215610a0457600080fd5b6108d68261092b565b60008060408385031215610a2057600080fd5b610a298361092b565b91506109e96020840161092b565b600181811c90821680610a4b57607f821691505b602082108103610a6b57634e487b7160e01b600052602260045260246000fd5b50919050565b6001600160a01b039390931683526020830191909152604082015260600190565b6001600160a01b0391909116815260200190565b8082018082111561028857634e487b7160e01b600052601160045260246000fdfee4eefbff6f5adc6b3fe0d11f14a3859decb3df1f4c82933fc6c1f8b498cc4a7da2646970667358221220276c4c42684240431e2a106fe61f8a87c028186ffb35e8bcdddc4920b7f5f5e864736f6c63430008140033",
  "linkReferences": {},
  "deployedLinkReferences": {}
}