{
  "_format": "hh-sol-artifact-1",
  "contractName": "UnlockVotesWrapper",
  "sourceName": "src/contracts/UnlockVotesWrapper.sol",
  "abi": [
    {
      "inputs": [
        {
          "internalType": "contract IERC721Enumerable",
          "name": "_lock",
          "type": "address"
        }
      ],
      "stateMutability": "nonpayable",
      "type": "constructor"
    },
    {
      "inputs": [
        {
          "internalType": "uint256",
          "name": "expiry",
          "type": "uint256"
        }
      ],
      "name": "VotesExpiredSignature",
      "type": "error"
    },
    {
      "anonymous": false,
      "inputs": [
        {
          "indexed": true,
          "internalType": "address",
          "name": "delegator",
          "type": "address"
        },
        {
          "indexed": true,
          "internalType": "address",
          "name": "fromDelegate",
          "type": "address"
        },
        {
          "indexed": true,
          "internalType": "address",
          "name": "toDelegate",
          "type": "address"
        }
      ],
      "name": "DelegateChanged",
      "type": "event"
    },
    {
      "anonymous": false,
      "inputs": [
        {
          "indexed": true,
          "internalType": "address",
          "name": "delegate",
          "type": "address"
        },
        {
          "indexed": false,
          "internalType": "uint256",
          "name": "previousVotes",
          "type": "uint256"
        },
        {
          "indexed": false,
          "internalType": "uint256",
          "name": "newVotes",
          "type": "uint256"
        }
      ],
      "name": "DelegateVotesChanged",
      "type": "event"
    },
    {
      "inputs": [
        {
          "internalType": "address",
          "name": "",
          "type": "address"
        }
      ],
      "name": "delegate",
      "outputs": [],
      "stateMutability": "nonpayable",
      "type": "function"
    },
    {
      "inputs": [
        {
          "internalType": "address",
          "name": "",
          "type": "address"
        },
        {
          "internalType": "uint256",
          "name": "",
          "type": "uint256"
        },
        {
          "internalType": "uint256",
          "name": "",
          "type": "uint256"
        },
        {
          "internalType": "uint8",
          "name": "",
          "type": "uint8"
        },
        {
          "internalType": "bytes32",
          "name": "",
          "type": "bytes32"
        },
        {
          "internalType": "bytes32",
          "name": "",
          "type": "bytes32"
        }
      ],
      "name": "delegateBySig",
      "outputs": [],
      "stateMutability": "nonpayable",
      "type": "function"
    },
    {
      "inputs": [
        {
          "internalType": "address",
          "name": "",
          "type": "address"
        }
      ],
      "name": "delegates",
      "outputs": [
        {
          "internalType": "address",
          "name": "",
          "type": "address"
        }
      ],
      "stateMutability": "pure",
      "type": "function"
    },
    {
      "inputs": [
        {
          "internalType": "uint256",
          "name": "",
          "type": "uint256"
        }
      ],
      "name": "getPastTotalSupply",
      "outputs": [
        {
          "internalType": "uint256",
          "name": "",
          "type": "uint256"
        }
      ],
      "stateMutability": "pure",
      "type": "function"
    },
    {
      "inputs": [
        {
          "internalType": "address",
          "name": "account",
          "type": "address"
        },
        {
          "internalType": "uint256",
          "name": "",
          "type": "uint256"
        }
      ],
      "name": "getPastVotes",
      "outputs": [
        {
          "internalType": "uint256",
          "name": "",
          "type": "uint256"
        }
      ],
      "stateMutability": "view",
      "type": "function"
    },
    {
      "inputs": [
        {
          "internalType": "address",
          "name": "account",
          "type": "address"
        }
      ],
      "name": "getVotes",
      "outputs": [
        {
          "internalType": "uint256",
          "name": "",
          "type": "uint256"
        }
      ],
      "stateMutability": "view",
      "type": "function"
    },
    {
      "inputs": [],
      "name": "lock",
      "outputs": [
        {
          "internalType": "contract IERC721Enumerable",
          "name": "",
          "type": "address"
        }
      ],
      "stateMutability": "view",
      "type": "function"
    }
  ],
  "bytecode": "0x60a060405234801561001057600080fd5b506040516104cd3803806104cd83398101604081905261002f91610040565b6001600160a01b0316608052610070565b60006020828403121561005257600080fd5b81516001600160a01b038116811461006957600080fd5b9392505050565b6080516104346100996000396000818161010701528181610143015261027b01526104346000f3fe608060405234801561001057600080fd5b506004361061006d5760003560e01c80633a46b1a814610072578063587cde1e146100985780635c19a95c146100b95780638e539e8c146100ce5780639ab24eb0146100e1578063c3cda520146100f4578063f83d08ba14610102575b600080fd5b610085610080366004610313565b610129565b6040519081526020015b60405180910390f35b6100ac6100a636600461033d565b50600090565b60405161008f9190610358565b6100cc6100c736600461033d565b6101c0565b005b6100856100dc36600461036c565b610208565b6100856100ef36600461033d565b610261565b6100cc6100c7366004610385565b6100ac7f000000000000000000000000000000000000000000000000000000000000000081565b6040516370a0823160e01b81526000906001600160a01b037f000000000000000000000000000000000000000000000000000000000000000016906370a0823190610178908690600401610358565b602060405180830381865afa158015610195573d6000803e3d6000fd5b505050506040513d601f19601f820116820180604052508101906101b991906103e5565b9392505050565b60405162461bcd60e51b815260206004820152601860248201527711195b1959d85d1a5bdb881b9bdd081cdd5c1c1bdc9d195960421b60448201526064015b60405180910390fd5b60405162461bcd60e51b815260206004820152602560248201527f546f74616c20737570706c7920736e617073686f74206e6f7420696d706c656d604482015264195b9d195960da1b60648201526000906084016101ff565b6040516370a0823160e01b81526000906001600160a01b037f000000000000000000000000000000000000000000000000000000000000000016906370a08231906102b0908590600401610358565b602060405180830381865afa1580156102cd573d6000803e3d6000fd5b505050506040513d601f19601f820116820180604052508101906102f191906103e5565b92915050565b80356001600160a01b038116811461030e57600080fd5b919050565b6000806040838503121561032657600080fd5b61032f836102f7565b946020939093013593505050565b60006020828403121561034f57600080fd5b6101b9826102f7565b6001600160a01b0391909116815260200190565b60006020828403121561037e57600080fd5b5035919050565b60008060008060008060c0878903121561039e57600080fd5b6103a7876102f7565b95506020870135945060408701359350606087013560ff811681146103cb57600080fd5b9598949750929560808101359460a0909101359350915050565b6000602082840312156103f757600080fd5b505191905056fea264697066735822122033b60e2505f2dff4895a3cd6d3b17989ce2e4331e93c8adbd3f23a4172a4b94464736f6c63430008140033",
  "linkReferences": {},
  "deployedLinkReferences": {}
}